:100000000C9472000C9493000C9493000C94930045
:100010000C9493000C942F0B0C944C0B0C949300A9
:100020000C9493000C9493000C9493000C94930004
:100030000C9493000C9493000C9493000C949300F4
:100040000C9493000C9493000C9493000C949300E4
:100050000C9493000C9493000C9493000C949300D4
:100060000C9493000C9435140C9493000C9493000E
:100070000C9493000C9493000C9493000C949300B4
:100080000C9493000C9493000C9493000C949300A4
:100090000C94B1140C9493000C9493000C94930062
:1000A0000C9493000C9493000C9493000C94930084
:1000B0000C9493000C9493000C9493000C94930074
:1000C0000C9493000C9493000C9493000C94930064
:1000D0000C9493000C9493000C9493000C94930054
:1000E0000C94930011241FBECFEFD1E2DEBFCDBF31
:1000F00000E00CBF13E0A0E0B2E0E8E3F2E400E0CF
:100100000BBF02C007900D92A23AB107D9F716E0D3
:10011000A2EAB3E001C01D92A431B107E1F70E9449
:10012000F2180C941A210C940000DF93CF93CDB7F2
:10013000DEB7A7E2B0E0E7E2F0E08081876F8C9362
:10014000A8E2B0E0E8E2F0E0808180788C93CF9183
:10015000DF910895DF93CF93CDB7DEB70E9495006E
:10016000CF91DF9108950F931F93DF93CF93CDB776
:10017000DEB7C057D0400FB6F894DEBF0FBECDBF7C
:10018000FE01E359FF4F80E090E0A0E8BFE38083E9
:100190009183A283B3838E0107591F4FFE01E35958
:1001A000FF4F60817181828193812DEC3CEC4CE2A8
:1001B00055E40E94791BDC01CB01F8018083918317
:1001C000A283B383FE01E759FF4F60817181828171
:1001D000938120E030E040E85FE30E947F1D8823A8
:1001E00044F4FE01E959FF4F81E090E09183808360
:1001F00064C0FE01E759FF4F608171818281938164
:1002000020E03FEF4FE757E40E941F1D18160CF047
:1002100043C0FE01E359FF4F608171818281938168
:1002200020E030E040E251E40E94791BDC01CB0188
:100230008E0109591F4FBC01CD010E94A319DC0199
:10024000CB01F801918380831FC0FE01EB59FF4F62
:1002500084E191E091838083FE01EB59FF4F80811F
:1002600091810197F1F7FE01EB59FF4F9183808354
:10027000DE01A959BF4FFE01E959FF4F80819181ED
:10028000019711969C938E93FE01E959FF4F80814F
:1002900091810097D1F627C08E0109591F4FFE01A9
:1002A000E759FF4F60817181828193810E94A31978
:1002B000DC01CB01F80191838083DE01AD59BF4F92
:1002C000FE01E959FF4F808191818D939C93FE013E
:1002D000ED59FF4F808191810197F1F7FE01ED59B2
:1002E000FF4F91838083A8E2B0E0E8E2F0E08081F4
:1002F0008E7F8C93A8E2B0E0E8E2F0E080818D7F11
:100300008C93E8E2F0E080E38083A8E2B0E0E8E2EA
:10031000F0E0808184608C93FE01E15AFF4F80E021
:1003200090E0A0EAB0E480839183A283B3838E013E
:10033000055A1F4FFE01E15AFF4F60817181828192
:1003400093812DEC3CEC4CE255E40E94791BDC01DE
:10035000CB01F80180839183A283B383FE01E55A28
:10036000FF4F608171818281938120E030E040E81D
:100370005FE30E947F1D882344F4FE01E75AFF4F8C
:1003800081E090E09183808364C0FE01E55AFF4FD5
:10039000608171818281938120E03FEF4FE757E4D4
:1003A0000E941F1D18160CF043C0FE01E15AFF4FBA
:1003B000608171818281938120E030E040E251E4EC
:1003C0000E94791BDC01CB018E01075A1F4FBC0133
:1003D000CD010E94A319DC01CB01F8019183808338
:1003E0001FC0FE01E95AFF4F84E191E091838083B1
:1003F000FE01E95AFF4F808191810197F1F7FE01DB
:10040000E95AFF4F91838083DE01A75ABF4FFE0157
:10041000E75AFF4F80819181019711969C938E93AB
:10042000FE01E75AFF4F808191810097D1F627C0E6
:100430008E01075A1F4FFE01E55AFF4F60817181FF
:10044000828193810E94A319DC01CB01F801918381
:100450008083DE01AB5ABF4FFE01E75AFF4F808118
:1004600091818D939C93FE01EB5AFF4F8081918186
:100470000197F1F7FE01EB5AFF4F91838083A8E2C9
:10048000B0E0E8E2F0E080818B7F8C93FE01EF5AD0
:10049000FF4F80E090E0A0E8BFE380839183A283D8
:1004A000B3838E01035B1F4FFE01EF5AFF4F608144
:1004B0007181828193812DEC3CEC4CE255E40E94E9
:1004C000791BDC01CB01F80180839183A283B38384
:1004D000FE01E35BFF4F608171818281938120E0A7
:1004E00030E040E85FE30E947F1D882344F4FE0172
:1004F000E55BFF4F81E090E09183808364C0FE0163
:10050000E35BFF4F608171818281938120E03FEF47
:100510004FE757E40E941F1D18160CF043C0FE0160
:10052000EF5AFF4F608171818281938120E030E03A
:1005300040E251E40E94791BDC01CB018E01055B96
:100540001F4FBC01CD010E94A319DC01CB01F801B2
:10055000918380831FC0FE01E75BFF4F84E191E040
:1005600091838083FE01E75BFF4F8081918101973A
:10057000F1F7FE01E75BFF4F91838083DE01A55B0E
:10058000BF4FFE01E55BFF4F80819181019711967E
:100590009C938E93FE01E55BFF4F808191810097D4
:1005A000D1F627C08E01055B1F4FFE01E35BFF4FB5
:1005B00060817181828193810E94A319DC01CB014A
:1005C000F80191838083DE01A95BBF4FFE01E55BEB
:1005D000FF4F808191818D939C93FE01E95BFF4FDA
:1005E000808191810197F1F7FE01E95BFF4F9183D3
:1005F0008083A8E2B0E0E8E2F0E080818E7F8C9317
:10060000A8E2B0E0E8E2F0E080818D7F8C93E8E240
:10061000F0E080E38083A8E2B0E0E8E2F0E08081EF
:1006200084608C93FE01ED5BFF4F80E090E0A0EAD8
:10063000B0E480839183A283B3838E01015C1F4F5A
:10064000FE01ED5BFF4F60817181828193812DEC12
:100650003CEC4CE255E40E94791BDC01CB01F80133
:1006600080839183A283B383FE01FF9660817181B1
:100670008281938120E030E040E85FE30E947F1DAB
:1006800088232CF481E090E09EAF8DAF46C0FE0140
:10069000FF96608171818281938120E03FEF4FE777
:1006A00057E40E941F1D181664F5FE01ED5BFF4F15
:1006B000608171818281938120E030E040E251E4E9
:1006C0000E94791BDC01CB01BC01CD010E94A31962
:1006D000DC01CB019EAF8DAF0FC084E191E09CAFF8
:1006E0008BAF8BAD9CAD0197F1F79CAF8BAF8DAD10
:1006F0009EAD01979EAF8DAF8DAD9EAD009769F712
:1007000016C0FE01FF9660817181828193810E94F3
:10071000A319DC01CB019EAF8DAF8DAD9EAD9AAF1D
:1007200089AF89AD9AAD0197F1F79AAF89AFA8E289
:10073000B0E0E8E2F0E080818B7F8C9380E090E095
:10074000A0E8BFE38DAB9EABAFABB8AF6DA97EA900
:100750008FA998AD2DEC3CEC4CE255E40E94791B3E
:10076000DC01CB0189AB9AABABABBCAB69A97AA975
:100770008BA99CA920E030E040E85FE30E947F1D48
:1007800088232CF481E090E098AB8FA73FC069A943
:100790007AA98BA99CA920E03FEF4FE757E40E947C
:1007A0001F1D18164CF56DA97EA98FA998AD20E0E4
:1007B00030E040E251E40E94791BDC01CB01BC0136
:1007C000CD010E94A319DC01CB0198AB8FA70FC00C
:1007D00084E191E09EA78DA78DA59EA50197F1F7D5
:1007E0009EA78DA78FA598A9019798AB8FA78FA5D6
:1007F00098A9009769F714C069A97AA98BA99CA93F
:100800000E94A319DC01CB0198AB8FA78FA598A9F3
:100810009CA78BA78BA59CA50197F1F79CA78BA7FD
:10082000A8E2B0E0E8E2F0E080818E7F8C93A8E25D
:10083000B0E0E8E2F0E080818D7F8C93E8E2F0E0C8
:1008400080E38083A8E2B0E0E8E2F0E080818460A9
:100850008C9380E090E0A0EAB0E48FA398A7A9A7CA
:10086000BAA76FA178A589A59AA52DEC3CEC4CE21E
:1008700055E40E94791BDC01CB018BA39CA3ADA3A3
:10088000BEA36BA17CA18DA19EA120E030E040E839
:100890005FE30E947F1D88232CF481E090E09AA3FF
:1008A00089A33FC06BA17CA18DA19EA120E03FEF59
:1008B0004FE757E40E941F1D18164CF56FA178A54D
:1008C00089A59AA520E030E040E251E40E94791B1E
:1008D000DC01CB01BC01CD010E94A319DC01CB01DD
:1008E0009AA389A30FC084E191E098A38F8F8F8D85
:1008F00098A10197F1F798A38F8F89A19AA10197E9
:100900009AA389A389A19AA1009769F714C06BA142
:100910007CA18DA19EA10E94A319DC01CB019AA309
:1009200089A389A19AA19E8F8D8F8D8D9E8D019710
:10093000F1F79E8F8D8FA8E2B0E0E8E2F0E08081D1
:100940008B7F8C9380E090E0A0E8BFE3898F9A8F43
:10095000AB8FBC8F698D7A8D8B8D9C8D2DEC3CEC93
:100960004CE255E40E94791BDC01CB018D8B9E8B00
:10097000AF8BB88F6D897E898F89988D20E030E0AC
:1009800040E85FE30E947F1D88232CF481E090E023
:100990009C8B8B8B3FC06D897E898F89988D20E0E1
:1009A0003FEF4FE757E40E941F1D18164CF5698D65
:1009B0007A8D8B8D9C8D20E030E040E251E40E94E6
:1009C000791BDC01CB01BC01CD010E94A319DC0124
:1009D000CB019C8B8B8B0FC084E191E09A8B898B30
:1009E00089899A890197F1F79A8B898B8B899C89E0
:1009F00001979C8B8B8B8B899C89009769F714C01E
:100A00006D897E898F89988D0E94A319DC01CB01A5
:100A10009C8B8B8B8B899C89988B8F878F859889F2
:100A20000197F1F7988B8F87A8E2B0E0E8E2F0E059
:100A300080818E7F8C93A8E2B0E0E8E2F0E08081D4
:100A40008D7F8C93E8E2F0E080E28083A8E2B0E062
:100A5000E8E2F0E0808184608C9380E090E0A0EA9E
:100A6000B0E48B879C87AD87BE876B857C858D8541
:100A70009E852DEC3CEC4CE255E40E94791BDC0198
:100A8000CB018F839887A987BA876F8178858985FD
:100A90009A8520E030E040E85FE30E947F1D8823D4
:100AA0002CF481E090E09E838D833FC06F81788538
:100AB00089859A8520E03FEF4FE757E40E941F1D8C
:100AC00018164CF56B857C858D859E8520E030E081
:100AD00040E251E40E94791BDC01CB01BC01CD0155
:100AE0000E94A319DC01CB019E838D830FC084E19A
:100AF00091E09C838B838B819C810197F1F79C8390
:100B00008B838D819E8101979E838D838D819E81B4
:100B1000009769F714C06F81788589859A850E944E
:100B2000A319DC01CB019E838D838D819E819A83E5
:100B3000898389819A810197F1F79A838983A8E251
:100B4000B0E0E8E2F0E080818B7F8C93C059DF4F0A
:100B50000FB6F894DEBF0FBECDBFCF91DF911F91CE
:100B60000F910895DF93CF93CDB7DEB72E970FB6D1
:100B7000F894DEBF0FBECDBF80E090E0A0E8BFE3F9
:100B80008B879C87AD87BE876B857C858D859E8591
:100B90002DEC3CEC4CE255E40E94791BDC01CB01CE
:100BA0008F839887A987BA876F81788589859A8589
:100BB00020E030E040E85FE30E947F1D88232CF4B2
:100BC00081E090E09E838D833FC06F817885898529
:100BD0009A8520E03FEF4FE757E40E941F1D18164B
:100BE0004CF56B857C858D859E8520E030E040E26C
:100BF00051E40E94791BDC01CB01BC01CD010E94B4
:100C0000A319DC01CB019E838D830FC084E191E0A9
:100C10009C838B838B819C810197F1F79C838B83D1
:100C20008D819E8101979E838D838D819E8100970A
:100C300069F714C06F81788589859A850E94A31908
:100C4000DC01CB019E838D838D819E819A83898374
:100C500089819A810197F1F79A83898388E20E94BA
:100C6000460681E00E94460686E00E9446068EE027
:100C70000E94460680E80E9446062E960FB6F8941B
:100C8000DEBF0FBECDBFCF91DF910895DF93CF932D
:100C9000CDB7DEB76E970FB6F894DEBF0FBECDBFEF
:100CA0008E8F8E8D8D8F8D8D807F8D8FA8E2B0E0A1
:100CB000E8E2F0E080818F708C93A8E2B0E0E8E297
:100CC000F0E090818D8D892B8C93A8E2B0E0E8E272
:100CD000F0E080818E7F8C93A8E2B0E0E8E2F0E063
:100CE00080818D7F8C93A8E2B0E0E8E2F0E0808123
:100CF00084608C9380E090E0A0EAB0E4898F9A8FC2
:100D0000AB8FBC8F698D7A8D8B8D9C8D2DEC3CECDF
:100D10004CE255E40E94791BDC01CB018D8B9E8B4C
:100D2000AF8BB88F6D897E898F89988D20E030E0F8
:100D300040E85FE30E947F1D88232CF481E090E06F
:100D40009C8B8B8B3FC06D897E898F89988D20E02D
:100D50003FEF4FE757E40E941F1D18164CF5698DB1
:100D60007A8D8B8D9C8D20E030E040E251E40E9432
:100D7000791BDC01CB01BC01CD010E94A319DC0170
:100D8000CB019C8B8B8B0FC084E191E09A8B898B7C
:100D900089899A890197F1F79A8B898B8B899C892C
:100DA00001979C8B8B8B8B899C89009769F714C06A
:100DB0006D897E898F89988D0E94A319DC01CB01F2
:100DC0009C8B8B8B8B899C89988B8F878F8598893F
:100DD0000197F1F7988B8F87A8E2B0E0E8E2F0E0A6
:100DE00080818B7F8C938E8D8F708E8F8E8D829570
:100DF000807F8E8FA8E2B0E0E8E2F0E080818F7023
:100E00008C93A8E2B0E0E8E2F0E090818E8D892B2F
:100E10008C93A8E2B0E0E8E2F0E080818E7F8C93D2
:100E2000A8E2B0E0E8E2F0E080818D7F8C93A8E258
:100E3000B0E0E8E2F0E0808184608C9380E090E0B4
:100E4000A0EAB0E48B879C87AD87BE876B857C85E5
:100E50008D859E852DEC3CEC4CE255E40E94791B7F
:100E6000DC01CB018F839887A987BA876F8178854A
:100E700089859A8520E030E040E85FE30E947F1D8D
:100E800088232CF481E090E09E838D833FC06F81A6
:100E9000788589859A8520E03FEF4FE757E40E94E7
:100EA0001F1D18164CF56B857C858D859E8520E071
:100EB00030E040E251E40E94791BDC01CB01BC012F
:100EC000CD010E94A319DC01CB019E838D830FC04D
:100ED00084E191E09C838B838B819C810197F1F766
:100EE0009C838B838D819E8101979E838D838D81D1
:100EF0009E81009769F714C06F81788589859A85EE
:100F00000E94A319DC01CB019E838D838D819E817C
:100F10009A83898389819A810197F1F79A838983DA
:100F2000A8E2B0E0E8E2F0E080818B7F8C936E96DF
:100F30000FB6F894DEBF0FBECDBFCF91DF910895FD
:100F4000DF93CF93CDB7DEB76E970FB6F894DEBFC1
:100F50000FBECDBF8E8F8E8D8D8F8D8D807F8D8FAF
:100F6000A8E2B0E0E8E2F0E080818F708C93A8E224
:100F7000B0E0E8E2F0E090818D8D892B8C93A8E2BF
:100F8000B0E0E8E2F0E0808181608C93A8E2B0E01C
:100F9000E8E2F0E080818D7F8C93A8E2B0E0E8E2A7
:100FA000F0E0808184608C9380E090E0A0EAB0E47F
:100FB000898F9A8FAB8FBC8F698D7A8D8B8D9C8D2D
:100FC0002DEC3CEC4CE255E40E94791BDC01CB019A
:100FD0008D8B9E8BAF8BB88F6D897E898F89988D15
:100FE00020E030E040E85FE30E947F1D88232CF47E
:100FF00081E090E09C8B8B8B3FC06D897E898F89CF
:10100000988D20E03FEF4FE757E40E941F1D181610
:101010004CF5698D7A8D8B8D9C8D20E030E040E21F
:1010200051E40E94791BDC01CB01BC01CD010E947F
:10103000A319DC01CB019C8B8B8B0FC084E191E069
:101040009A8B898B89899A890197F1F79A8B898B79
:101050008B899C8901979C8B8B8B8B899C890097B2
:1010600069F714C06D897E898F89988D0E94A319B4
:10107000DC01CB019C8B8B8B8B899C89988B8F8718
:101080008F8598890197F1F7988B8F87A8E2B0E058
:10109000E8E2F0E080818B7F8C938E8D8F708E8F55
:1010A0008E8D8295807F8E8FA8E2B0E0E8E2F0E03E
:1010B00080818F708C93A8E2B0E0E8E2F0E090814C
:1010C0008E8D892B8C93A8E2B0E0E8E2F0E080817D
:1010D00081608C93A8E2B0E0E8E2F0E080818D7F4F
:1010E0008C93A8E2B0E0E8E2F0E0808184608C9329
:1010F00080E090E0A0EAB0E48B879C87AD87BE8754
:101100006B857C858D859E852DEC3CEC4CE255E411
:101110000E94791BDC01CB018F839887A987BA874E
:101120006F81788589859A8520E030E040E85FE32B
:101130000E947F1D88232CF481E090E09E838D83A4
:101140003FC06F81788589859A8520E03FEF4FE722
:1011500057E40E941F1D18164CF56B857C858D8504
:101160009E8520E030E040E251E40E94791BDC01E2
:10117000CB01BC01CD010E94A319DC01CB019E83F0
:101180008D830FC084E191E09C838B838B819C8154
:101190000197F1F79C838B838D819E8101979E83BC
:1011A0008D838D819E81009769F714C06F8178854A
:1011B00089859A850E94A319DC01CB019E838D83CA
:1011C0008D819E819A83898389819A810197F1F724
:1011D0009A838983A8E2B0E0E8E2F0E080818B7F27
:1011E0008C936E960FB6F894DEBF0FBECDBFCF9135
:1011F000DF910895DF93CF93CDB7DEB780E80E94EB
:101200004606CF91DF910895DF93CF930F920F920F
:10121000CDB7DEB79A8389830AC0E981FA818081DC
:101220000E94A00789819A8101969A838983E98126
:10123000FA818081882389F70F900F90CF91DF91F9
:101240000895DF93CF9300D00F92CDB7DEB7898397
:101250006A838981282F30E03C832B838B819C819A
:1012600082309105D9F02B813C812330310534F453
:101270008B819C818130910561F01EC02B813C8166
:101280002330310581F08B819C818430910581F080
:1012900013C08A8181580E9446060EC08A818154FB
:1012A0000E94460609C08A818D560E94460604C0E7
:1012B0008A818D520E9446060F900F900F900F90DA
:1012C000CF91DF910895DF93CF93CDB7DEB7279706
:1012D0000FB6F894DEBF0FBECDBF8A836B835D83EC
:1012E0004C833F832E8319828A81882319F08B8156
:1012F000882319F40E94FA0804C08A816B810E9435
:1013000021098E819F818530910519F08981813075
:10131000A9F48C819D8120E137E2B9010E94CF20A0
:10132000CB01C09690930906809308068091080629
:10133000909109060E94A00781E089838E819F8198
:101340008430910519F08981813011F58C819D815E
:1013500028EE33E0B9010E94CF20CB0190930B0619
:1013600080930A0680910A0690910B062AE030E0ED
:10137000B9010E94CF20C096909313068093120665
:1013800080911206909113060E94A00781E0898344
:101390008E819F818330910519F08981813011F50B
:1013A0008C819D8124E630E0B9010E94CF20CB01E1
:1013B00090930B0680930A0680910A0690910B0683
:1013C0002AE030E0B9010E94CF20C09690930F062A
:1013D00080930E0680910E0690910F060E94A00742
:1013E00081E089838E819F818230910519F0898106
:1013F000813011F58C819D812AE030E0B9010E9495
:10140000CF20CB0190930B0680930A0680910A06A9
:1014100090910B062AE030E0B9010E94CF20C096DF
:1014200090930D0680930C0680910C0690910D060A
:101430000E94A00781E089838E819F818130910580
:1014400019F08981813091F48C819D812AE030E00E
:10145000B9010E94CF20C096909311068093100688
:1014600080911006909111060E94A0078E819F81A5
:10147000863091051CF085E40E94A00727960FB6E0
:10148000F894DEBF0FBECDBFCF91DF910895DF93FB
:10149000CF93CDB7DEB7F8947894CF91DF910895CC
:1014A000DF93CF93CDB7DEB7E1ECF0E01082E0EC54
:1014B000F0E01082E2ECF0E086E08083E4ECF0E023
:1014C00087E48083E5ECF0E01082E1ECF0E088E96D
:1014D0008083CF91DF910895DF93CF93CDB7DEB7AF
:1014E000E9ECF0E01082E8ECF0E01082EAECF0E0E9
:1014F00086E08083ECECF0E087E48083EDECF0E0C4
:101500001082E9ECF0E088E98083CF91DF910895C3
:10151000DF93CF93CDB7DEB7E1E2F0E08FE08083D9
:10152000E2E2F0E01082EAE0F1E088E18083EBE0C3
:10153000F1E088E18083EDE2F0E01082EEE2F0E09D
:101540001082A4E2B0E0E4E2F0E0808180628C935B
:10155000A5E2B0E0E5E2F0E0808180628C93A4E255
:10156000B0E0E4E2F0E0808180648C93A5E2B0E03A
:10157000E5E2F0E0808180648C93ADE2B0E0EDE2E2
:10158000F0E080818F778C93AEE2B0E0EEE2F0E0A5
:10159000808180688C93CF91DF910895DF93CF9302
:1015A000CDB7DEB7E1E8F0E01082E5E8F0E08CEFDF
:1015B0008083E4E8F0E081E08083E9E8F0E083E024
:1015C0008083E8E8F0E08FEF8083EBE8F0E083E0F1
:1015D0008083EAE8F0E08FEF8083EDE8F0E083E0DD
:1015E0008083ECE8F0E08FEF8083E7E8F0E083E0D1
:1015F0008083E6E8F0E08FEF8083E0E8F0E08BEABC
:101600008083E2E8F0E01082E1E8F0E08CE08083A3
:10161000E1E2F1E01082E0E2F1E081EA8083E1E2E0
:10162000F1E08BE08083E8E2F1E083E78083EAE2A7
:10163000F1E083E78083CF91DF910895DF93CF932B
:10164000CDB7DEB7F894EAE6F0E08AE08083EDE318
:10165000F0E080E380837894CF91DF9108951F922A
:101660000F920FB60F9211248F939F93DF93CF9316
:10167000CDB7DEB78091A4039091A5030196909316
:10168000A5038093A403CF91DF919F918F910F9039
:101690000FBE0F901F9018951F920F920FB60F92CA
:1016A00011248F939F93DF93CF93CDB7DEB78091B3
:1016B000A2039091A30301969093A3038093A203A6
:1016C000CF91DF919F918F910F900FBE0F901F9040
:1016D00018950F931F93DF93CF9300D00F920F9223
:1016E000CDB7DEB78D8380E090E0A0E0B0E08983E5
:1016F0009A83AB83BC838D81882F90E0A0E0B0E01B
:10170000BC01CD010E94611EDC01CB01BC01CD01F9
:1017100020E030E040E150E40E94731CDC01CB018A
:10172000BC01CD0120E030E048EA51E40E944C1BAE
:10173000DC01CB0189839A83AB83BC83E9E8F0E0C9
:10174000108208E810E069817A818B819C810E9477
:10175000A319DC01CB01F80180830F900F900F904B
:101760000F900F90CF91DF911F910F9108950F93DC
:101770001F93DF93CF9300D00F920F92CDB7DEB7B8
:101780008D8380E090E0A0E0B0E089839A83AB8312
:10179000BC838D81882F90E0A0E0B0E0BC01CD013A
:1017A0000E94611EDC01CB01BC01CD0120E030E0D4
:1017B00040E150E40E94731CDC01CB01BC01CD016F
:1017C00020E030E048EA51E40E944C1BDC01CB01F0
:1017D00089839A83AB83BC83EBE8F0E010820AE84C
:1017E00010E069817A818B819C810E94A319DC01C0
:1017F000CB01F80180830F900F900F900F900F9006
:10180000CF91DF911F910F910895DF93CF93CDB7C3
:10181000DEB7E9E8F0E083E08083E8E8F0E08FEF0E
:101820008083CF91DF910895DF93CF93CDB7DEB75B
:10183000EBE8F0E083E08083EAE8F0E08FEF80837C
:10184000CF91DF910895DF93CF93CDB7DEB781E0DD
:1018500061E00E9421098CE40E94A0078091A2030C
:101860009091A3039C0181E062E0A90123E030E0B4
:101870000E94630981E066E00E94210982E50E94DE
:10188000A0078091A4039091A5039C0181E067E0EB
:10189000A90123E030E00E946309CF91DF91089510
:1018A000DF93CF93CDB7DEB7E2E2F0E089E080834B
:1018B000CF91DF910895DF93CF93CDB7DEB7E2E20A
:1018C000F0E086E08083CF91DF910895DF93CF939E
:1018D000CDB7DEB7E2E2F0E081E08083CF91DF9127
:1018E0000895DF93CF93CDB7DEB7E2E2F0E082E078
:1018F0008083CF91DF910895DF93CF93CDB7DEB78B
:10190000E2E2F0E088E08083CF91DF910895DF93F9
:10191000CF93CDB7DEB7E2E2F0E084E08083CF91F1
:10192000DF910895DF93CF93CDB7DEB7E2E2F0E029
:1019300085E08083CF91DF910895DF93CF93CDB77A
:10194000DEB7E2E2F0E08AE08083CF91DF91089594
:10195000DF93CF93CDB7DEB72A970FB6F894DEBFEB
:101960000FBECDBF6F83788789879A8781E090E02B
:101970009E838D8381E090E09C838B836F8178854B
:1019800089859A852FED3FE44DEE5FE30E94791B38
:10199000DC01CB01BC01CD010E940D1EDC01CB019D
:1019A0009A8389831092A3031092A2031092A50335
:1019B0001092A4030E94230C0E94500C2091A203B9
:1019C0003091A30389819A81281739074CF420911B
:1019D000A4033091A50389819A812817390754F30C
:1019E0000E94F40E0E94230C2A960FB6F894DEBFD4
:1019F0000FBECDBFCF91DF910895DF93CF93CDB7C9
:101A0000DEB72A970FB6F894DEBF0FBECDBF6F8347
:101A1000788789879A8781E090E09E838D8381E033
:101A200090E09C838B836F81788589859A852FEDE3
:101A30003FE44DEE5FE30E94791BDC01CB01BC016A
:101A4000CD010E940D1EDC01CB019A838983109287
:101A5000A3031092A2031092A5031092A4030E9464
:101A6000230C0E945B0C2091A2033091A303898177
:101A70009A81281739074CF42091A4033091A503CB
:101A800089819A812817390754F30E94F40E0E9425
:101A9000230C2A960FB6F894DEBF0FBECDBFCF91B0
:101AA000DF910895DF93CF93CDB7DEB72A970FB6B6
:101AB000F894DEBF0FBECDBF6F83788789879A8782
:101AC0006F81788589859A852DEC3CEC4CE750E454
:101AD0000E94731CDC01CB01BC01CD010E940D1ED4
:101AE000DC01CB019A8389831092A3031092A20395
:101AF0001092A5031092A40389819A8183309105E5
:101B00004CF489819A819C838B838B819C819E83F9
:101B10008D8308C083E090E09C838B838B819C81C4
:101B20009E838D830E94230C02C00E94920C209100
:101B3000A2033091A3038D819E812817390764F495
:101B40002091A4033091A5038B819C81281739072C
:101B500064F302C00E94870C2091A2033091A3037A
:101B60008D819E8128173907ACF302C00E94660C54
:101B70002091A4033091A5038B819C8128173907FC
:101B8000ACF32091A2033091A30389819A81281795
:101B90003907BCF48091A2039091A30329813A8173
:101BA000A901481B590BCA01833091052CF4898186
:101BB0009A819E838D8305C08D819E8103969E832D
:101BC0008D832091A4033091A50389819A812817E0
:101BD0003907BCF48091A4039091A50329813A812F
:101BE000A901481B590BCA01833091052CF4898146
:101BF0009A819C838B8305C08B819C8103969C83F7
:101C00008B830E94F40E2091A2033091A30389815B
:101C10009A812817390754F42091A4033091A50321
:101C200089819A81281739070CF47CCF0E94F40E21
:101C30000E94230C2A960FB6F894DEBF0FBECDBFCC
:101C4000CF91DF910895DF93CF93CDB7DEB72A9779
:101C50000FB6F894DEBF0FBECDBF6F83788789873C
:101C60009A876F81788589859A852DEC3CEC4CE7C5
:101C700050E40E94731CDC01CB01BC01CD010E9429
:101C80000D1EDC01CB019A8389831092A30310926D
:101C9000A2031092A5031092A40389819A81833034
:101CA00091054CF489819A819C838B838B819C81E3
:101CB0009E838D8308C083E090E09C838B838B811F
:101CC0009C819E838D830E94230C02C00E949D0CE8
:101CD0002091A2033091A3038D819E81281739079B
:101CE00064F42091A4033091A5038B819C81281773
:101CF000390764F302C00E947C0C2091A20330914A
:101D0000A3038D819E8128173907ACF302C00E947E
:101D1000710C2091A4033091A5038B819C8128171D
:101D20003907ACF32091A2033091A30389819A81F2
:101D300028173907BCF48091A2039091A30329814D
:101D40003A81A901481B590BCA01833091052CF433
:101D500089819A819E838D8305C08D819E810396A2
:101D60009E838D832091A4033091A50389819A815C
:101D700028173907BCF48091A4039091A503298109
:101D80003A81A901481B590BCA01833091052CF4F3
:101D900089819A819C838B8305C08B819C8103966A
:101DA0009C838B830E94F40E2091A2033091A303A5
:101DB00089819A812817390754F42091A40330911E
:101DC000A50389819A81281739070CF47CCF0E94DA
:101DD000F40E0E94230C2A960FB6F894DEBF0FBEB5
:101DE000CDBFCF91DF910895DF93CF93CDB7DEB70D
:101DF000E2E2F0E01082CF91DF910895DF93CF937C
:101E0000CDB7DEB72E970FB6F894DEBF0FBECDBFAD
:101E10008EE60E94B70B80E090E0A8ECB2E48B87DE
:101E20009C87AD87BE876B857C858D859E852DECD7
:101E30003CEC4CE255E40E94791BDC01CB018F8322
:101E40009887A987BA876F81788589859A8520E0E8
:101E500030E040E85FE30E947F1D88232CF481E09E
:101E600090E09E838D833FC06F81788589859A85B8
:101E700020E03FEF4FE757E40E941F1D18164CF576
:101E80006B857C858D859E8520E030E040E251E4C5
:101E90000E94791BDC01CB01BC01CD010E94A3197A
:101EA000DC01CB019E838D830FC084E191E09C8394
:101EB0008B838B819C810197F1F79C838B838D8130
:101EC0009E8101979E838D838D819E81009769F706
:101ED00014C06F81788589859A850E94A319DC01D9
:101EE000CB019E838D838D819E819A838983898195
:101EF0009A810197F1F79A8389832E960FB6F89409
:101F0000DEBF0FBECDBFCF91DF910895DF93CF939A
:101F1000CDB7DEB72E970FB6F894DEBF0FBECDBF9C
:101F200087E80E94B70B80E090E0A8ECB2E48B87D2
:101F30009C87AD87BE876B857C858D859E852DECC6
:101F40003CEC4CE255E40E94791BDC01CB018F8311
:101F50009887A987BA876F81788589859A8520E0D7
:101F600030E040E85FE30E947F1D88232CF481E08D
:101F700090E09E838D833FC06F81788589859A85A7
:101F800020E03FEF4FE757E40E941F1D18164CF565
:101F90006B857C858D859E8520E030E040E251E4B4
:101FA0000E94791BDC01CB01BC01CD010E94A31969
:101FB000DC01CB019E838D830FC084E191E09C8383
:101FC0008B838B819C810197F1F79C838B838D811F
:101FD0009E8101979E838D838D819E81009769F7F5
:101FE00014C06F81788589859A850E94A319DC01C8
:101FF000CB019E838D838D819E819A838983898184
:102000009A810197F1F79A8389832E960FB6F894F7
:10201000DEBF0FBECDBFCF91DF910895DF93CF9389
:10202000CDB7DEB7EA970FB6F894DEBF0FBECDBFCF
:102030009AAF89AF0E94FE0E80E090E8ABEBB4E46B
:102040008DAB9EABAFABB8AF6DA97EA98FA998AD94
:102050002DEC3CEC4CE255E40E94791BDC01CB01F9
:1020600089AB9AABABABBCAB69A97AA98BA99CA98C
:1020700020E030E040E85FE30E947F1D88232CF4DD
:1020800081E090E098AB8FA73FC069A97AA98BA99E
:102090009CA920E03FEF4FE757E40E941F1D181650
:1020A0004CF56DA97EA98FA998AD20E030E040E203
:1020B00051E40E94791BDC01CB01BC01CD010E94DF
:1020C000A319DC01CB0198AB8FA70FC084E191E08D
:1020D0009EA78DA78DA59EA50197F1F79EA78DA719
:1020E0008FA598A9019798AB8FA78FA598A900975E
:1020F00069F714C069A97AA98BA99CA90E94A319A0
:10210000DC01CB0198AB8FA78FA598A99CA78BA7C3
:102110008BA59CA50197F1F79CA78BA760E070E0C9
:1021200080E090E40E94A80C80E090E8ABEBB4E47F
:102130008FA398A7A9A7BAA76FA178A589A59AA5E3
:102140002DEC3CEC4CE255E40E94791BDC01CB0108
:102150008BA39CA3ADA3BEA36BA17CA18DA19EA1CB
:1021600020E030E040E85FE30E947F1D88232CF4EC
:1021700081E090E09AA389A33FC06BA17CA18DA1CF
:102180009EA120E03FEF4FE757E40E941F1D181665
:102190004CF56FA178A589A59AA520E030E040E232
:1021A00051E40E94791BDC01CB01BC01CD010E94EE
:1021B000A319DC01CB019AA389A30FC084E191E0AC
:1021C00098A38F8F8F8D98A10197F1F798A38F8F88
:1021D00089A19AA101979AA389A389A19AA100979D
:1021E00069F714C06BA17CA18DA19EA10E94A319C7
:1021F000DC01CB019AA389A389A19AA19E8F8D8F1F
:102200008D8D9E8D0197F1F79E8F8D8F89AD9AAD43
:10221000AA2797FDA095BA2FBC01CD010E94AF1D42
:10222000DC01CB01BC01CD010E94520D80E090E8A1
:10223000ABEBB4E4898F9A8FAB8FBC8F698D7A8DAD
:102240008B8D9C8D2DEC3CEC4CE255E40E94791B6F
:10225000DC01CB018D8B9E8BAF8BB88F6D897E8916
:102260008F89988D20E030E040E85FE30E947F1D79
:1022700088232CF481E090E09C8B8B8B3FC06D8990
:102280007E898F89988D20E03FEF4FE757E40E94C9
:102290001F1D18164CF5698D7A8D8B8D9C8D20E055
:1022A00030E040E251E40E94791BDC01CB01BC012B
:1022B000CD010E94A319DC01CB019C8B8B8B0FC03D
:1022C00084E191E09A8B898B89899A890197F1F74A
:1022D0009A8B898B8B899C8901979C8B8B8B8B89A3
:1022E0009C89009769F714C06D897E898F89988DC4
:1022F0000E94A319DC01CB019C8B8B8B8B899C8961
:10230000988B8F878F8598890197F1F7988B8F87A6
:1023100060E070E080E89FE30E94FD0C80E090E8C0
:10232000ABEBB4E48B879C87AD87BE876B857C85E0
:102330008D859E852DEC3CEC4CE255E40E94791B8A
:10234000DC01CB018F839887A987BA876F81788555
:1023500089859A8520E030E040E85FE30E947F1D98
:1023600088232CF481E090E09E838D833FC06F81B1
:10237000788589859A8520E03FEF4FE757E40E94F2
:102380001F1D18164CF56B857C858D859E8520E07C
:1023900030E040E251E40E94791BDC01CB01BC013A
:1023A000CD010E94A319DC01CB019E838D830FC058
:1023B00084E191E09C838B838B819C810197F1F771
:1023C0009C838B838D819E8101979E838D838D81DC
:1023D0009E81009769F714C06F81788589859A85F9
:1023E0000E94A319DC01CB019E838D838D819E8188
:1023F0009A83898389819A810197F1F79A838983E6
:102400000E94860FEA960FB6F894DEBF0FBECDBFCE
:10241000CF91DF910895DF93CF93CDB7DEB7EA97E1
:102420000FB6F894DEBF0FBECDBF9AAF89AF0E9442
:10243000FE0E80E090E8ABEBB4E48DAB9EABAFABAF
:10244000B8AF6DA97EA98FA998AD2DEC3CEC4CE2FC
:1024500055E40E94791BDC01CB0189AB9AABABAB95
:10246000BCAB69A97AA98BA99CA920E030E040E81F
:102470005FE30E947F1D88232CF481E090E098ABFD
:102480008FA73FC069A97AA98BA99CA920E03FEF3B
:102490004FE757E40E941F1D18164CF56DA97EA941
:1024A0008FA998AD20E030E040E251E40E94791B12
:1024B000DC01CB01BC01CD010E94A319DC01CB01E1
:1024C00098AB8FA70FC084E191E09EA78DA78DA543
:1024D0009EA50197F1F79EA78DA78FA598A90197B3
:1024E00098AB8FA78FA598A9009769F714C069A921
:1024F0007AA98BA99CA90E94A319DC01CB0198ABF6
:102500008FA78FA598A99CA78BA78BA59CA50197A2
:10251000F1F79CA78BA760E070E080EC9FE30E943E
:10252000A80C80E090E8ABEBB4E48FA398A7A9A730
:10253000BAA76FA178A589A59AA52DEC3CEC4CE231
:1025400055E40E94791BDC01CB018BA39CA3ADA3B6
:10255000BEA36BA17CA18DA19EA120E030E040E84C
:102560005FE30E947F1D88232CF481E090E09AA312
:1025700089A33FC06BA17CA18DA19EA120E03FEF6C
:102580004FE757E40E941F1D18164CF56FA178A560
:1025900089A59AA520E030E040E251E40E94791B31
:1025A000DC01CB01BC01CD010E94A319DC01CB01F0
:1025B0009AA389A30FC084E191E098A38F8F8F8D98
:1025C00098A10197F1F798A38F8F89A19AA10197FC
:1025D0009AA389A389A19AA1009769F714C06BA156
:1025E0007CA18DA19EA10E94A319DC01CB019AA31D
:1025F00089A389A19AA19E8F8D8F8D8D9E8D019724
:10260000F1F79E8F8D8F89AD9AADAA2797FDA09582
:10261000BA2FBC01CD010E94AF1DDC01CB01BC0172
:10262000CD010E94230E80E090E8ABEBB4E4898FEB
:102630009A8FAB8FBC8F698D7A8D8B8D9C8D2DEC95
:102640003CEC4CE255E40E94791BDC01CB018D8B04
:102650009E8BAF8BB88F6D897E898F89988D20E096
:1026600030E040E85FE30E947F1D88232CF481E086
:1026700090E09C8B8B8B3FC06D897E898F89988D74
:1026800020E03FEF4FE757E40E941F1D18164CF55E
:10269000698D7A8D8B8D9C8D20E030E040E251E495
:1026A0000E94791BDC01CB01BC01CD010E94A31962
:1026B000DC01CB019C8B8B8B0FC084E191E09A8B6A
:1026C000898B89899A890197F1F79A8B898B8B89F4
:1026D0009C8901979C8B8B8B8B899C89009769F7D0
:1026E00014C06D897E898F89988D0E94A319DC01A1
:1026F000CB019C8B8B8B8B899C89988B8F878F854B
:1027000098890197F1F7988B8F8760E070E080ECF3
:102710009FE30E94FD0C80E090E8ABEBB4E48B8774
:102720009C87AD87BE876B857C858D859E852DECCE
:102730003CEC4CE255E40E94791BDC01CB018F8319
:102740009887A987BA876F81788589859A8520E0DF
:1027500030E040E85FE30E947F1D88232CF481E095
:1027600090E09E838D833FC06F81788589859A85AF
:1027700020E03FEF4FE757E40E941F1D18164CF56D
:102780006B857C858D859E8520E030E040E251E4BC
:102790000E94791BDC01CB01BC01CD010E94A31971
:1027A000DC01CB019E838D830FC084E191E09C838B
:1027B0008B838B819C810197F1F79C838B838D8127
:1027C0009E8101979E838D838D819E81009769F7FD
:1027D00014C06F81788589859A850E94A319DC01D0
:1027E000CB019E838D838D819E819A83898389818C
:1027F0009A810197F1F79A8389830E94860FEA965E
:102800000FB6F894DEBF0FBECDBFCF91DF91089514
:10281000DF93CF93CDB7DEB782E061E00E9421095C
:1028200084E40E94A0078091A6039091A7039C01D5
:1028300082E062E0A90123E030E00E94630982E0C7
:1028400066E00E94210984E50E94A0078091A80308
:102850009091A9039C0182E067E0A90123E030E0A8
:102860000E946309CF91DF9108951F920F920FB6D6
:102870000F9200905B000F9211242F933F934F9380
:102880005F936F937F938F939F93AF93BF93EF93D8
:10289000FF93DF93CF930F920F92CDB7DEB7F894EB
:1028A000E6ECF0E08081882F90E09A83898389812B
:1028B0009A818F3F910539F481E090E09093AB03CA
:1028C0008093AA0333C089819A818E3F910571F468
:1028D0008091A6039091A70301969093A7038093FC
:1028E000A6031092A9031092A80320C02091A6036A
:1028F0003091A7034091A8035091A90369817A817F
:10290000C901880F991F820F931F840F951F880F8D
:10291000991FFC01E055FC4F71836083CA01019649
:102920009093A9038093A8030E9408140E9408149E
:1029300078940F900F90CF91DF91FF91EF91BF911D
:10294000AF919F918F917F916F915F914F913F9147
:102950002F910F9000925B000F900FBE0F901F9071
:1029600018951F920F920FB60F9200905B000F9276
:1029700011242F933F934F935F936F937F938F9384
:102980009F93AF93BF93EF93FF93DF93CF930F92F8
:102990000F92CDB7DEB7F894EEECF0E08081882F8F
:1029A00090E09A83898389819A818F3F910539F4D8
:1029B00081E090E09093AB038093AA0333C08981B8
:1029C0009A818E3F910571F48091A6039091A7039F
:1029D00001969093A7038093A6031092A9031092E7
:1029E000A80320C00E9408142091A6033091A703D9
:1029F0004091A8035091A90369817A81C901880F88
:102A0000991F820F931F840F951F880F991FFC0138
:102A1000E055FC4F71836083CA0101969093A9032E
:102A20008093A8030E94081478940F900F90CF9180
:102A3000DF91FF91EF91BF91AF919F918F917F9126
:102A40006F915F914F913F912F910F9000925B009A
:102A50000F900FBE0F901F901895DF93CF93CDB7B7
:102A6000DEB70E941E0B0E94880A0E94CE0A0E94B6
:102A700095000E94B3000E94B2050E946C0ACF919B
:102A8000DF910895DF93CF93CDB7DEB762970FB68E
:102A9000F894DEBF0FBECDBF988B8F877A8B698B82
:102AA00081E061E00E9421098F8598890E940409D4
:102AB00082E061E00E94210980E092E00E94040926
:102AC00089899A89009709F482C089899A89AA27F5
:102AD00097FDA095BA2FBC01CD010E94AF1DDC016E
:102AE000CB018B879C87AD87BE876B857C858D8569
:102AF0009E852DEC3CEC4CE255E40E94791BDC01F8
:102B0000CB018F839887A987BA876F81788589855C
:102B10009A8520E030E040E85FE30E947F1D882333
:102B20002CF481E090E09E838D833FC06F81788597
:102B300089859A8520E03FEF4FE757E40E941F1DEB
:102B400018164CF56B857C858D859E8520E030E0E0
:102B500040E251E40E94791BDC01CB01BC01CD01B4
:102B60000E94A319DC01CB019E838D830FC084E1F9
:102B700091E09C838B838B819C810197F1F79C83EF
:102B80008B838D819E8101979E838D838D819E8114
:102B9000009769F714C06F81788589859A850E94AE
:102BA000A319DC01CB019E838D838D819E819A8345
:102BB000898389819A810197F1F79A83898381E0DA
:102BC00061E00E94210980E092E00E94040962967F
:102BD0000FB6F894DEBF0FBECDBFCF91DF91089541
:102BE000DF93CF93CDB7DEB762970FB6F894DEBF11
:102BF0000FBECDBF9A8B898B188A1F86D6C081E005
:102C000061E00E94210986E40E94A0072F8538898F
:102C1000C901880F991F820F931F880F991FFC010C
:102C2000E055FC4F808191819C0181E062E0A90127
:102C300023E030E00E94630981E066E00E94210900
:102C400086E50E94A0072F853889C901880F991F42
:102C5000820F931F880F991FFC01EE54FC4F808157
:102C600091819C0181E067E0A90123E030E00E94AE
:102C7000630981E06BE00E94210984E50E94A007BE
:102C80002F853889C901880F991F820F931F880FDC
:102C9000991FFC01EC54FC4F808191819C0181E0E3
:102CA0006CE0A90121E030E00E94630989899A89DA
:102CB000AA2797FDA095BA2FBC01CD010E94AF1D98
:102CC000DC01CB018B879C87AD87BE876B857C85BC
:102CD0008D859E852DEC3CEC4CE255E40E94791BE1
:102CE000DC01CB018F839887A987BA876F817885AC
:102CF00089859A8520E030E040E85FE30E947F1DEF
:102D000088232CF481E090E09E838D833FC06F8107
:102D1000788589859A8520E03FEF4FE757E40E9448
:102D20001F1D18164CF56B857C858D859E8520E0D2
:102D300030E040E251E40E94791BDC01CB01BC0190
:102D4000CD010E94A319DC01CB019E838D830FC0AE
:102D500084E191E09C838B838B819C810197F1F7C7
:102D60009C838B838D819E8101979E838D838D8132
:102D70009E81009769F714C06F81788589859A854F
:102D80000E94A319DC01CB019E838D838D819E81DE
:102D90009A83898389819A810197F1F79A8389833C
:102DA0008F8598890196988B8F872091A603309103
:102DB000A7038F859889821793070CF420CF62961A
:102DC0000FB6F894DEBF0FBECDBFCF91DF9108954F
:102DD000DF93CF93CDB7DEB76E970FB6F894DEBF13
:102DE0000FBECDBF1E8E1D8EEAC12D8D3E8DC90139
:102DF000880F991F820F931F880F991FFC01E055C0
:102E0000FC4F80819181009709F4ACC082E061E0C1
:102E10000E94210981E192E00E9404092D8D3E8DDE
:102E2000C901880F991F820F931F880F991FFC01FA
:102E3000E055FC4F808191819C0182E069E0A9010D
:102E400023E030E00E9463092D8D3E8DC901880F7B
:102E5000991F820F931F880F991FFC01E055FC4FAB
:102E600080819181AA2797FDA095BA2FBC01CD0141
:102E70000E94AF1DDC01CB01BC01CD010E94A80C5A
:102E800080E090E0A0E2B1E4898F9A8FAB8FBC8F95
:102E9000698D7A8D8B8D9C8D2DEC3CEC4CE255E44C
:102EA0000E94791BDC01CB018D8B9E8BAF8BB88F81
:102EB0006D897E898F89988D20E030E040E85FE35E
:102EC0000E947F1D88232CF481E090E09C8B8B8BEB
:102ED0003FC06D897E898F89988D20E03FEF4FE755
:102EE00057E40E941F1D18164CF5698D7A8D8B8D45
:102EF0009C8D20E030E040E251E40E94791BDC012F
:102F0000CB01BC01CD010E94A319DC01CB019C8B3C
:102F10008B8B0FC084E191E09A8B898B89899A8988
:102F20000197F1F79A8B898B8B899C8901979C8BF0
:102F30008B8B8B899C89009769F714C06D897E897A
:102F40008F89988D0E94A319DC01CB019C8B8B8B00
:102F50008B899C89988B8F878F8598890197F1F74A
:102F6000988B8F872D8D3E8DC901880F991F820FF9
:102F7000931F880F991FFC01EC54FC4F80819181B5
:102F80008130910509F040C02D8D3E8DC901880F1B
:102F9000991F820F931F880F991FFC01EE54FC4F5D
:102FA00080819181843091057CF182E061E00E9412
:102FB000210982E292E00E9404092D8D3E8DC90113
:102FC000880F991F820F931F880F991FFC01EE54E1
:102FD000FC4F808191819C0182E066E0A90123E0A1
:102FE00030E00E9463092D8D3E8DC901880F991F25
:102FF000820F931F880F991FFC01EE54FC4F8081B4
:1030000091810E940E1064C02D8D3E8DC901880FE4
:10301000991F820F931F880F991FFC01EC54FC4FDE
:1030200080819181009709F040C02D8D3E8DC901AE
:10303000880F991F820F931F880F991FFC01EE5470
:10304000FC4F80819181843091057CF182E061E0C8
:103050000E94210983E392E00E9404092D8D3E8D98
:10306000C901880F991F820F931F880F991FFC01B8
:10307000EE54FC4F808191819C0182E067E0A901C0
:1030800023E030E00E9463092D8D3E8DC901880F39
:10309000991F820F931F880F991FFC01EE54FC4F5C
:1030A000808191810E940B1213C02D8D3E8DC9012C
:1030B000880F991F820F931F880F991FFC01EC54F2
:1030C000FC4F808191818230910511F40E94FE0EA7
:1030D00080E090E0A0E2B1E48B879C87AD87BE875B
:1030E0006B857C858D859E852DEC3CEC4CE255E412
:1030F0000E94791BDC01CB018F839887A987BA874F
:103100006F81788589859A8520E030E040E85FE32B
:103110000E947F1D88232CF481E090E09E838D83A4
:103120003FC06F81788589859A8520E03FEF4FE722
:1031300057E40E941F1D18164CF56B857C858D8504
:103140009E8520E030E040E251E40E94791BDC01E2
:10315000CB01BC01CD010E94A319DC01CB019E83F0
:103160008D830FC084E191E09C838B838B819C8154
:103170000197F1F79C838B838D819E8101979E83BC
:103180008D838D819E81009769F714C06F8178854A
:1031900089859A850E94A319DC01CB019E838D83CA
:1031A0008D819E819A83898389819A810197F1F724
:1031B0009A8389838D8D9E8D01969E8F8D8F209110
:1031C000A6033091A7038D8D9E8D821793070CF473
:1031D0000CCE6E960FB6F894DEBF0FBECDBFCF916A
:1031E000DF910895DF93CF93CDB7DEB72E970FB65B
:1031F000F894DEBF0FBECDBF0E942D1588E50E945A
:10320000690B80E090E0A8ECB2E48B879C87AD87E7
:10321000BE876B857C858D859E852DEC3CEC4CE2D4
:1032200055E40E94791BDC01CB018F839887A98725
:10323000BA876F81788589859A8520E030E040E8FB
:103240005FE30E947F1D88232CF481E090E09E8341
:103250008D833FC06F81788589859A8520E03FEF17
:103260004FE757E40E941F1D18164CF56B857C85AF
:103270008D859E8520E030E040E251E40E94791B7C
:10328000DC01CB01BC01CD010E94A319DC01CB0103
:103290009E838D830FC084E191E09C838B838B811F
:1032A0009C810197F1F79C838B838D819E8101978F
:1032B0009E838D838D819E81009769F714C06F81F5
:1032C000788589859A850E94A319DC01CB019E83AC
:1032D0008D838D819E819A83898389819A810197CB
:1032E000F1F79A8389830E94FE0E85E492E064EFF1
:1032F00071E00E94421586E592E060E070E00E9475
:1033000042158091AA039091AB030097D1F386E612
:1033100092E060E070E00E944215ECE2F0E0808113
:103320008823DCF387E792E068EE73E00E944215A1
:103330000E94E81688E892E060E070E00E94421582
:103340000E94FE0EFFCFEF92FF920F931F937B011F
:103350008C0120E030E040E05FE40E944F1D8823B4
:103360008CF0C801B70120E030E040E05FE40E944B
:103370001B1B0E940D1E9B01AC01205030404040A1
:10338000504806C0C801B7010E940D1E9B01AC0148
:10339000B901CA011F910F91FF90EF900895A0E02D
:1033A000B0E0E5EDF9E10C94E320DC012B01FA013A
:1033B0009C91923008F439C1EB018881823008F485
:1033C00033C1943069F4843009F02FC111969C9177
:1033D00011978981981709F428C1A9E9B2E025C19C
:1033E000843009F421C18230A9F4923009F01DC162
:1033F0009A01AD0188E0EA010990AE01E901099264
:103400009E018150C1F7E201898111969C91892327
:10341000818308C1923009F407C112962D903C9027
:103420001397EB018A819B811496AD90BD90CD904E
:10343000DC901797EC80FD800E811F819101281B85
:10344000390BB90137FF04C066277727621B730B5E
:10345000603271050CF061C0121613066CF537016D
:103460004801062E04C096948794779467940A9432
:10347000D2F721E030E040E050E004C0220F331FDB
:10348000441F551F6A95D2F72150304040405040AC
:103490002E213F214023512321153105410551059E
:1034A00021F021E030E040E050E079018A01E62897
:1034B000F728082919293CC0232BD1F1260E371EE5
:1034C00035014601062E04C096948794779467943C
:1034D0000A94D2F721E030E040E050E004C0220F2F
:1034E000331F441F551F6A95D2F72150304040408A
:1034F00050402A213B214C215D21211531054105F8
:10350000510521F021E030E040E050E059016A012E
:10351000A628B728C828D9280BC0821593052CF0F7
:103520001C01AA24BB24650103C0EE24FF248701EB
:1035300011969C91D20111968C91981709F445C06F
:10354000992339F0A80197012A193B094C095D0913
:1035500006C0A60195012E193F09400B510B57FDDE
:1035600008C01182338222822483358346835783A5
:103570001DC081E081833382228288279927DC0164
:10358000821B930BA40BB50B84839583A683B7830F
:103590000DC0220F331F441F551F248335834683DC
:1035A000578382819381019793838283248135811C
:1035B00046815781DA01C9010197A109B1098F5FDD
:1035C0009F4FAF4FBF4328F30BC0918333822282BA
:1035D000EA0CFB1C0C1D1D1DE482F582068317837B
:1035E00083E08083248135814681578157FF1AC04B
:1035F000C901AA2797FDA095BA2F81709070A0707D
:10360000B0705695479537952795822B932BA42B11
:10361000B52B84839583A683B7838281938101969A
:1036200093838283DF0101C0D201CD01CDB7DEB724
:10363000E2E10C94FF20A0E2B0E0E1E2FBE10C94B7
:10364000EF2069837A838B839C832D833E834F8312
:103650005887E9E0EE2EF12CEC0EFD1ECE0101960E
:10366000B7010E94FE1F8E010F5E1F4FCE0105960F
:10367000B8010E94FE1F8A8991E089278A8BC701C1
:10368000B801AE01475E5F4F0E94CF190E94291F0B
:10369000A096E6E00C940B21A0E2B0E0E2E5FBE1AD
:1036A0000C94EF2069837A838B839C832D833E83E4
:1036B0004F835887F9E0EF2EF12CEC0EFD1ECE0162
:1036C0000196B7010E94FE1F8E010F5E1F4FCE01B3
:1036D0000596B8010E94FE1FC701B801AE01475E02
:1036E0005F4F0E94CF190E94291FA096E6E00C941C
:1036F0000B21A0E2B0E0EFE7FBE10C94E32069834B
:103700007A838B839C832D833E834F835887CE019E
:103710000196BE01675F7F4F0E94FE1FCE01059696
:10372000BE016F5E7F4F0E94FE1F9985923088F028
:1037300089898230C8F0943019F4823051F404C081
:10374000843029F4923081F489E992E0C6C0923045
:1037500049F420E09A858A89981321E02A87CE01CE
:103760000996BBC0823049F420E09A858A89981373
:1037700021E02A8BCE014196B0C02D843E844F8437
:1037800058886D887E888F88988CEE24FF24870166
:10379000AA24BB24650140E050E060E070E0E0E076
:1037A000F0E0C10181709070892BE9F0E60CF71C04
:1037B000081D191D9A01AB012A0D3B1D4C1D5D1DF5
:1037C00080E090E0A0E0B0E0E614F70408051905F9
:1037D00020F481E090E0A0E0B0E0BA01A901480F38
:1037E000591F6A1F7B1FAA0CBB1CCC1CDD1C97FE3B
:1037F00008C081E090E0A0E0B0E0A82AB92ACA2A77
:10380000DB2A3196E032F10549F0660C771C881C02
:10381000991C5694479437942794C3CFFA85EA8924
:103820002B893C898B859C85280F391F2E5F3F4F44
:1038300017C0CA0181709070892B61F016950795A9
:10384000F794E79480E090E0A0E0B0E8E82AF92A55
:103850000A2B1B2B76956795579547952F5F3F4F02
:1038600077FDE7CF0CC0440F551F661F771F17FD6C
:103870004160EE0CFF1C001F111F215030404030F2
:1038800090E0590790E0690790E4790760F32B8F87
:103890003C8FDB01CA018F779070A070B0708034CC
:1038A0009105A105B10561F447FD0AC0E114F104D9
:1038B0000105110529F0405C5F4F6F4F7F4F407845
:1038C0001A8EFE1711F081E08A8F4D8F5E8F6F8FF9
:1038D00078A383E0898FCE0149960E94291FA09684
:1038E000E2E10C94FF20A8E1B0E0E9E7FCE10C94F0
:1038F000EB2069837A838B839C832D833E834F8364
:103900005887B9E0EB2EF12CEC0EFD1ECE0101968E
:10391000B7010E94FE1F8E010F5E1F4FCE0105965C
:10392000B8010E94FE1F2985223008F47EC0398923
:10393000323010F4B8017CC08A859A8989278A8739
:10394000243011F0223031F4231709F06EC069E9F8
:1039500072E06EC0343039F41D861E861F86188AC8
:103960001C861B8604C0323021F484E08987B701AD
:103970005FC02B853C858B899C89281B390B3C8734
:103980002B87ED84FE840F851889AD88BE88CF888B
:10399000D88CEA14FB040C051D0540F4EE0CFF1C4A
:1039A000001F111F215030403C872B8720E030E062
:1039B00040E050E080E090E0A0E0B0E460E070E043
:1039C000EA14FB040C051D0540F0282B392B4A2B6B
:1039D0005B2BEA18FB080C091D09B695A79597956E
:1039E0008795EE0CFF1C001F111F6F5F7F4F6F311B
:1039F000710531F7DA01C9018F779070A070B0704E
:103A000080349105A105B10561F427FD0AC0E114D8
:103A1000F1040105110529F0205C3F4F4F4F5F4F26
:103A200020782D873E874F87588BBE01675F7F4F79
:103A3000CB010E94291F6896EAE00C940721A8E1B7
:103A4000B0E0E5E2FDE10C94EF2069837A838B839B
:103A50009C832D833E834F83588789E0E82EF12C89
:103A6000EC0EFD1ECE010196B7010E94FE1F8E01D5
:103A70000F5E1F4FCE010596B8010E94FE1F89857B
:103A8000823040F08989823028F0C701B8010E9455
:103A9000762001C08FEF6896E6E00C940B21A8E138
:103AA000B0E0E5E5FDE10C94EF2069837A838B8338
:103AB0009C832D833E834F83588789E0E82EF12C29
:103AC000EC0EFD1ECE010196B7010E94FE1F8E0175
:103AD0000F5E1F4FCE010596B8010E94FE1F89851B
:103AE000823040F08989823028F0C701B8010E94F5
:103AF000762001C08FEF6896E6E00C940B21A8E1D8
:103B0000B0E0E5E8FDE10C94EF2069837A838B83D4
:103B10009C832D833E834F83588789E0E82EF12CC8
:103B2000EC0EFD1ECE010196B7010E94FE1F8E0114
:103B30000F5E1F4FCE010596B8010E94FE1F8985BA
:103B4000823040F08989823028F0C701B8010E9494
:103B5000762001C081E06896E6E00C940B21A8E095
:103B6000B0E0E5EBFDE10C94EC209B01AC0183E0BF
:103B70008983DA01C9018827B7FD83959927AA2788
:103B8000BB27B82E211531054105510519F482E0F6
:103B900089833AC08823A9F0203080E0380780E08C
:103BA000480780E8580729F460E070E080E09FEC67
:103BB00030C0EE24FF248701E21AF30A040B150B30
:103BC00002C079018A018EE1C82ED12CDC82CB8221
:103BD000ED82FE820F831887C801B7010E94DA1EAA
:103BE00001971816190684F4082E04C0EE0CFF1C69
:103BF000001F111F0A94D2F7ED82FE820F831887EF
:103C0000C81AD90ADC82CB82BA82CE0101960E9400
:103C1000291F2896E9E00C940821ACE0B0E0E3E12C
:103C2000FEE10C94F32069837A838B839C83CE011D
:103C30000196BE016B5F7F4F0E94FE1F8D81823017
:103C400061F1823050F1843021F48E81882351F16A
:103C50002EC02F81388537FD20C06E812F31310570
:103C60001CF06623F9F023C08EE190E0821B930BD9
:103C700029853A854B855C8504C0569547953795CF
:103C800027958A95D2F76623B1F0509540953095E7
:103C900021953F4F4F4F5F4F0EC020E030E040E096
:103CA00050E009C02FEF3FEF4FEF5FE704C020E087
:103CB00030E040E050E8B901CA012C96E2E00C94F3
:103CC0000F21A8E0B0E0E7E6FEE10C94EB207B01D9
:103CD0008C01611571058105910519F482E08983D4
:103CE00060C083E089838EE1C82ED12CDC82CB8238
:103CF000ED82FE820F831887C801B7010E94DA1E89
:103D0000FC013197F7FF3BC0222733272E1B3F0BC7
:103D100057016801022E04C0D694C794B794A794A3
:103D20000A94D2F740E050E060E070E081E090E07B
:103D3000A0E0B0E004C0880F991FAA1FBB1F2A95FE
:103D4000D2F70197A109B1098E219F21A023B123A8
:103D50000097A105B10521F041E050E060E070E07E
:103D60004A295B296C297D294D835E836F8378877F
:103D70008EE190E08E1B9F0B9C838B8312C030974B
:103D800081F00E2E04C0EE0CFF1C001F111F0A94C0
:103D9000D2F7ED82FE820F831887CE1ADF0ADC820B
:103DA000CB821A82CE0101960E94291F2896EAE052
:103DB0000C940721EF92FF920F931F937B018C01CC
:103DC00080E0E81680E0F80681E0080780E0180748
:103DD00088F48FEFE816F1040105110531F028F0A1
:103DE00088E090E0A0E0B0E017C080E090E0A0E0C4
:103DF000B0E012C080E0E81680E0F80680E0080736
:103E000081E0180728F088E190E0A0E0B0E004C06D
:103E100080E190E0A0E0B0E020E230E040E050E05F
:103E2000281B390B4A0B5B0B04C016950795F794BA
:103E3000E7948A95D2F7F701EF55FD4F8081281B53
:103E4000310941095109C9011F910F91FF90EF906C
:103E50000895DF92EF92FF920F931F93FC01E4808D
:103E6000F58006811781D1808081823048F480E01E
:103E700090E0A0E1B0E0E82AF92A0A2B1B2BA5C0AC
:103E8000843009F49FC0823021F4EE24FF2487019E
:103E900005C0E114F1040105110519F4E0E0F0E0BA
:103EA00096C0628173819FEF623879070CF05BC026
:103EB00022E83FEF261B370B2A3131052CF020E09A
:103EC00030E040E050E02AC0B801A701022E04C053
:103ED00076956795579547950A94D2F781E090E0DB
:103EE000A0E0B0E004C0880F991FAA1FBB1F2A954D
:103EF000D2F70197A109B1098E219F21A023B123F7
:103F00000097A105B10521F081E090E0A0E0B0E0CC
:103F10009A01AB01282B392B4A2B5B2BDA01C90103
:103F20008F779070A070B07080349105A105B105B5
:103F300039F427FF09C0205C3F4F4F4F5F4F04C04B
:103F4000215C3F4F4F4F5F4FE0E0F0E02030A0E0BA
:103F50003A07A0E04A07A0E45A0710F0E1E0F0E0D9
:103F600079018A0127C06038710564F5FB01E158C9
:103F7000FF4FD801C7018F779070A070B070803468
:103F80009105A105B10539F4E7FE0DC080E490E08C
:103F9000A0E0B0E004C08FE390E0A0E0B0E0E80E65
:103FA000F91E0A1F1B1F17FF05C016950795F794EA
:103FB000E794319687E016950795F794E7948A95EC
:103FC000D1F705C0EE24FF248701EFEFF0E06E2F5C
:103FD000679566276795902F9F77D794DD24D794B0
:103FE0008E2F8695492F462B582F5D29B701CA0180
:103FF0001F910F91FF90EF90DF900895FC01DB017E
:10400000408151812281622F6F7770E0221F222729
:10401000221F9381892F880F822B282F30E0991F30
:104020009927991F11969C93119721153105A9F590
:10403000411551056105710511F482E037C082E830
:104040009FEF13969C938E9312979A01AB0167E0B2
:10405000220F331F441F551F6A95D1F783E08C93BD
:104060000DC0220F331F441F551F12968D919C9136
:104070001397019713969C938E931297203080E0AC
:10408000380780E0480780E4580758F314962D93CA
:104090003D934D935C93179708952F3F310579F425
:1040A000411551056105710519F484E08C9308955B
:1040B00064FF03C081E08C9312C01C9210C02F5784
:1040C000304013963C932E93129783E08C9387E0B5
:1040D000440F551F661F771F8A95D1F77064149699
:1040E0004D935D936D937C93179708951F93DC0117
:1040F000FB019C91923008F447C08081823008F423
:1041000043C0943051F411961C91843099F581810B
:10411000682F70E0611B71093FC0843021F092303C
:1041200031F48230B9F18181882389F12DC0119653
:104130001C9111978230F1F081811817D9F41296F1
:104140002D913C911397828193818217930794F06C
:1041500028173907BCF014968D919D910D90BC9154
:10416000A02D2481358146815781281739074A07B8
:104170005B0718F4112341F00AC082179307A407C4
:10418000B50740F4112319F061E070E005C06FEF4E
:104190007FEF02C060E070E0CB011F910895AA1B81
:1041A000BB1B51E107C0AA1FBB1FA617B70710F022
:1041B000A61BB70B881F991F5A95A9F78095909554
:1041C000BC01CD0108952F923F924F925F926F9262
:1041D0007F928F929F92AF92BF92CF92DF92EF9297
:1041E000FF920F931F93CF93DF93CDB7DEB7CA1B18
:1041F000DB0B0FB6F894DEBF0FBECDBF19942A8833
:10420000398848885F846E847D848C849B84AA84EA
:10421000B984C884DF80EE80FD800C811B81AA8177
:10422000B981CE0FD11D0FB6F894DEBF0FBECDBF42
:08423000ED010895F894FFCFA1
:104238002020202020202020202020202020202076
:1042480000466F7277617264202020202020202091
:1042580020004C656674202020202020202020206B
:104268002020005269676874202020202020202008
:10427800202020200045525453204C616220507267
:104288006F6A6563740057616974696E6720666F49
:104298007220492F500052656D6F76652053657204
:1042A80069616C202020005374617274696E672004
:1042B800746F20647261770046696E69736865641B
:1042C80020202020202020200000000000000000E6
:1042D80000000102020303030304040404040404A9
:1042E8000405050505050505050505050505050577
:1042F8000506060606060606060606060606060657
:104308000606060606060606060606060606060645
:104318000607070707070707070707070707070726
:104328000707070707070707070707070707070715
:104338000707070707070707070707070707070705
:1043480007070707070707070707070707070707F5
:1043580007080808080808080808080808080808D6
:1043680008080808080808080808080808080808C5
:1043780008080808080808080808080808080808B5
:1043880008080808080808080808080808080808A5
:104398000808080808080808080808080808080895
:1043A8000808080808080808080808080808080885
:1043B8000808080808080808080808080808080875
:1043C8000808080808080808080808080808080865
:0243D8000800DB
:00000001FF
